:020000040000FA
:0600000004EF08F01200FD
:020006000000F8
:08000800D9CFE6FFE1CFD9FFDB
:100010001F0EE126400EC76E220EC66E946A9280B5
:10002000890EC26EC40EC16EB3DAC284C2B4FED7EA
:10003000C350816EC450E66ED950020FE96EDACF1C
:10004000EAFFE552E750EE6EED6AC350E66ED95016
:10005000040FE96EDACFEAFFE552E750EE6EED6A83
:10006000BF0E9E149E6E020EDBCF16F0030EDBCF8A
:1000700017F016C017F0166A040EDB501624146E23
:10008000050EDB501720156E060E14C0DBFF070EA1
:1000900015C0DBFF060EDBCF08F0070EDBCF09F043
:1000A00064EC04F0080E07C0DBFF090E08C0DBFF9C
:1000B0000A0E09C0DBFF0B0E0AC0DBFF080EDBCF08
:1000C00018F0090EDBCF19F00A0EDBCF1AF00B0E79
:1000D000DBCF1BF00C6A0D6AA00E0E6E400E0F6E89
:1000E00018C007F019C008F01AC009F01BC00AF0C8
:1000F000CCEC04F007C014F008C015F009C016F0ED
:100100000AC017F00C6AC00E0D6E7F0E0E6E440E04
:100110000F6E14C007F015C008F016C009F017C024
:100120000AF079EC04F00C0E07C0DBFF0D0E08C0DE
:10013000DBFF0E0E09C0DBFF0F0E0AC0DBFF0C0E4B
:10014000DBCF14F00D0EDBCF15F00E0EDBCF16F06B
:100150000F0EDBCF17F00C6A0D6AC80E0E6E420E42
:100160000F6E14C007F015C008F016C009F017C0D4
:100170000AF0CCEC04F0100E07C0DBFF110E08C033
:10018000DBFF120E09C0DBFF130E0AC0DBFFD950E4
:10019000100FE96EDACFEAFFEECFE6FFEECFE6FF13
:1001A000EECFE6FFEFCFE6FF0FD8E552E552E5527E
:1001B000E5523BD71F0EE15C02E2E16AE552E16ED7
:1001C000E552E7CFD9FF1200D9CFE6FFE1CFD9FF43
:1001D0001D0EE1262E0EF36E1C0EF3CFDBFFFB0E81
:1001E000DBCF07F0FC0EDBCF08F0FD0EDBCF09F014
:1001F000FE0EDBCF0AF0F6EC05F0080E08C0DBFFC0
:10020000090E09C0DBFFFB0EDBCF07F0FC0EDBCFD6
:1002100008F0FD0EDBCF09F0FE0EDBCF0AF0F6ECA6
:1002200005F00A0E08C0DBFF0B0E09C0DBFF080E4D
:10023000DBCF14F0090EDBCF15F00A0E0D6E0E6A3F
:1002400014C008F015C009F0D0EC05F004C014F09B
:1002500005C015F014C0DEFF15C0DDFF0A0E146ED8
:10026000156A080EDBCF08F0090EDBCF09F014C0C9
:100270000DF015C00EF0D0EC05F0080E08C0DBFF45
:10028000090E09C0DBFF080EDBCF14F0090EDBCF2F
:1002900015F00A0E0D6E0E6A14C008F015C009F0B4
:1002A000D0EC05F004C014F005C015F0020E14C027
:1002B000DBFF030E15C0DBFF0A0E146E156A080E75
:1002C000DBCF08F0090EDBCF09F014C00DF015C02C
:1002D0000EF0D0EC05F0080E08C0DBFF090E09C0D7
:1002E000DBFF080EDBCF14F0090EDBCF15F00A0E92
:1002F0000D6E0E6A14C008F015C009F0D0EC05F0C0
:1003000004C014F005C015F0040E14C0DBFF050E88
:1003100015C0DBFFFB0EDBCF14F0FC0EDBCF15F0BE
:10032000FD0EDBCF16F0FE0EDBCF17F00A0EDBCF93
:1003300008F00B0EDBCF09F066EC04F007C018F0F4
:1003400008C019F009C01AF00AC01BF018C00CF060
:1003500019C00DF01AC00EF01BC00FF014C007F04A
:1003600015C008F016C009F017C00AF039EC05F006
:1003700007C06AF008C06BF009C06CF00AC06DF0ED
:100380000C6A0D6A200E0E6E410E0F6E6AC007F0E9
:100390006BC008F06CC009F06DC00AF0CCEC04F042
:1003A000F6EC05F0060E08C0DBFF070E09C0DBFF08
:1003B000B00EE66E040EE66E52DAE552E5520DD945
:1003C000540EF36E0C0EF3CFDBFF450EF36E0D0EE5
:1003D000F3CFDBFF4D0EF36E0E0EF3CFDBFF500EAF
:1003E000F36E0F0EF3CFDBFF3D0EF36E100EF3CF67
:1003F000DBFF040EDBCFE6FF050EDBCFE6FF57D8B1
:10040000E552E552E76E110EE7CFDBFF020EDBCFC0
:10041000E6FF030EDBCFE6FF4AD8E552E552E76E72
:10042000120EE7CFDBFFDECFE6FFDDCFE6FF3FD8E2
:10043000E552E552E76E130EE7CFDBFF2E0EF36EAB
:10044000140EF3CFDBFF060EDBCFE6FF070EDBCF8C
:10045000E6FF2DD8E552E552E76E150EE7CFDBFF3C
:10046000200EF36E160EF3CFDBFF430EF36E170E66
:10047000F3CFDBFF020EE66E010EE66EFED8E5520C
:10048000E5520C0EE66ED9500C0FE66E000EDA2027
:10049000E66E17D9E552E552E5521D0EE15C02E227
:1004A000E16AE552E16EE552E7CFD9FF1200D9CFFC
:1004B000E6FFE1CFD9FFE652FD0EDBCF08F0FE0EDE
:1004C000DBCF09F0090E081801E1095048E0080ED9
:1004D000081801E1095040E0070E081801E1095031
:1004E00038E0060E081801E1095030E0050E081842
:1004F00001E1095028E0040E081801E1095020E04C
:10050000030E081801E1095018E0020E081801E175
:10051000095010E0010E081801E1095008E00850E8
:1005200001E1095001E01ED0300EDF6E1BD0310E0C
:10053000DF6E18D0320EDF6E15D0330EDF6E12D0A4
:10054000340EDF6E0FD0350EDF6E0CD0360EDF6E40
:1005500009D0370EDF6E06D0380EDF6E03D0390EAD
:10056000DF6E00D0DF5000D0E552E552E7CFD9FF73
:100570001200D9CFE6FFE1CFD9FF8290FE0EDB500B
:10058000C96EC7A0FED78280E552E7CFD9FF12001F
:1005900082908292210EE66EECDFE552C80EE66E86
:1005A000E8DFE552060EE66EE4DFE552130EE66E76
:1005B000E0DFE552200EE66EDCDFE5520C0EE66E63
:1005C000D8DFE552400EE66ED4DFE552800EE66ECF
:1005D000D0DFE55202D815EF03F0D9CFE6FFE1CF27
:1005E000D9FF020EE12682908282DE6ADD6ADECFCA
:1005F00014F0DDCF15F0D890155004E6F80E145C19
:10060000010E155808E2E66AB4DFE552DF2A010E52
:1006100001E3DB2AECD7020EE15C02E2E16AE5527B
:10062000E16EE552E7CFD9FF1200D9CFE6FFE1CF67
:10063000D9FF020EE12682908282DE6ADD6ADECF79
:1006400014F0DDCF15F0D890155004E6F80E145CC8
:10065000010E155808E2E6688CDFE552DF2A010E2C
:1006600001E3DB2AECD7020EE15C02E2E16AE5522B
:10067000E16EE552E7CFD9FF1200D9CFE6FFE1CF17
:10068000D9FF8292FD0EDB504009E76EFD0EE7CFE9
:10069000DBFFFD0EDBCFE6FF6CDFE552FE0EDB502D
:1006A000060DF3508009E76EFE0EE7CFDBFFFE0E6E
:1006B000DBCFE6FF5EDFE5528282E552E7CFD9FF6E
:1006C0001200D9CFE6FFE1CFD9FF020EE1268282E8
:1006D000FC0EDB50000841E2DE6ADD6ADECF14F07A
:1006E000DDCF15F0153404E214500408000E155443
:1006F00029E3FD0EDBCFE9FFFE0EDBCFEAFFEF5073
:10070000E00F146E156A14BE1568050E1502F3CFBE
:1007100015F01402F3CF14F0F4501526560E1426DB
:100720000D0E1522DE501424F66EDD501520F76EE6
:100730000800F550E66E1DDFE552DF2A010E01E3E9
:10074000DB2ACCD7E66A15DFE552FD0EDB2AFE0E6A
:1007500001E3DB2AFC0EDB06BBD7020EE15C02E202
:10076000E16AE552E16EE552E7CFD9FF1200D9CF39
:10077000E6FFE1CFD9FFFE0EDBCFF6FFF76AF6BE4C
:10078000F768050EF702F3CFF7FFF602F3CFF6FF97
:10079000F450F726560EF6260D0EF722010EF62619
:1007A000000EF7220800F550E66EE3DEE552FE0E7D
:1007B000DBCFF6FFF76AF6BEF768050EF702F3CF58
:1007C000F7FFF602F3CFF6FFF450F726560EF626A3
:1007D0000D0EF722020EF626000EF7220800F55045
:1007E000E66EC7DEE552FE0EDBCFF6FFF76AF6BE19
:1007F000F768050EF702F3CFF7FFF602F3CFF6FF27
:10080000F450F726560EF6260D0EF722030EF626A6
:10081000000EF7220800F550E66EABDEE552FE0E44
:10082000DBCFF6FFF76AF6BEF768050EF702F3CFE7
:10083000F7FFF602F3CFF6FFF450F726560EF62632
:100840000D0EF722040EF626000EF7220800F550D2
:10085000E66E8FDEE552E552E7CFD9FF1200D9CF21
:10086000E6FFE1CFD9FF020EE126FD0EDBCF14F04B
:10087000FE0EDBCF15F0153404E214500008000E14
:10088000155418E2DE6ADD6ADECF14F0DDCF15F014
:10089000153404E214506E08000E155405E3DF2AE7
:1008A000010E01E3DB2AF0D7FD0EDB06FE0E01E2AE
:1008B000DB06DBD7020EE15C02E2E16AE552E16EA3
:0808C000E552E7CFD9FF120059
:0808C800019E08D0019E09AE5B
:1008D00005D0086C091EE86A0922018E09C003F0E0
:1008E00008C002F0136A126A8E0E046E056A41EFA8
:1008F00006F0016A7DEC06F095EC06F001B625EFF6
:1009000006F001A205D001BA25EF06F02CEF06F0A3
:1009100001BA38EF06F001A005D001B825EF06F0C6
:1009200038EF06F001B82CEF06F0056A7F0E0A24B6
:10093000046EE86A05220F50045EE86A055A1A0E32
:10094000106E0A6A126A136A026A036A0C50075E22
:100950000D50085A0E50095A000E0A5A09E70C5059
:1009600007260D5008220E500922000E0A2201D03F
:10097000128AD8900736083609360A36D8901236C9
:10098000133602360336102EE1D70950081007102F
:10099000D8A4128A41EF06F0016A7DEC06F095ECCE
:1009A00006F001B625EF06F001A205D001B825EF4B
:1009B00006F02CEF06F001AA05D001B025EF06F0F5
:1009C0002CEF06F001B002D001A802D038EF06F0FB
:1009D000056A0F500A24046EE86A05227E0E045E42
:1009E000E86A055A126A136A026A036A0E5009021B
:1009F000F4CF03F0F3CF02F00D500902F3501326A9
:100A0000F4500222000E03220E500802F350132667
:100A1000F4500222000E03220C500902F350122659
:100A2000F4501322000E022203220D500802F3504C
:100A30001226F4501322000E022203220E50070247
:100A4000F3501226F4501322000E022203220C50FF
:100A50000802F4501226000E1322022203220D5027
:100A60000702F4501226000E13220222032241EF45
:100A700006F00F7E016A7DEC06F095EC06F001B6FB
:100A800025EF06F001A20AD001AA03D001BE25EF8E
:100A900006F001A431EF06F02EEF06F001AA05D012
:100AA00001AC31EF06F02EEF06F001A00AD001A84C
:100AB00008D001BE04D001A402D03AEF06F03EEF08
:100AC00006F0126A056A0F500A5C116E10E307C047
:100AD00013F008C002F009C003F00AC010F00CC007
:100AE00007F00DC008F00EC009F0013A09D00CC0A3
:100AF00013F00DC002F00EC003F00FC010F0116C27
:100B0000019E01BC018E10C004F001B06DEF06F033
:100B10001A0E11606DEF06F0046A0A6A01A408D08B
:100B2000076C081E091E0A1EE86A082209220A220A
:100B300001AC08D0136C021E031E041EE86A0222D8
:100B400003220422066A115207E00A3409320832ED
:100B500007320632112EF9D7075013260850022209
:100B6000095003220A50042206C012F0019E04AE6E
:100B70000BD0126C131E021E031E041EE86A132201
:100B8000022203220422018E04A006D0D880033260
:100B9000023213321232102A10C004F041EF06F074
:100BA000006A0EAED9EF05F00D6C0E1EE86A0E223B
:100BB000001E09AEE1EF05F0086C091EE86A092283
:100BC000001EDEEC07F009BEF1EF05F000AE000CF0
:100BD000086C091EE86A0922046C051EE86A0522F1
:100BE000000C00BEE8EF05F00188FF0C016A7DEC07
:100BF00006F001B600EF06F001A20ED001B405D058
:100C00007F0E096EFF0E086E1FD0800E096E086AF7
:100C10001BD0096A086A18D001B0FBD78F0E0A6092
:100C2000EDD77E0E0A64F5D78E0E0A5C05E0D890EB
:100C3000093208320A2AF8D701A406D0086C091E26
:100C4000E86A092209AEE5D712007F0E0A6EFF0E90
:100C5000096E086E076E12007F0E01BEFF0E0A6E4F
:100C600002D07F0E0A6E800E096E086A076AF3D7FB
:100C700001AE04D0800E0A6E096AF7D70A6A096AC3
:100C8000F4D70350021013101210F8E005BEF0D78D
:100C900003BE0CD004500510EBE0D890123613368A
:100CA000023603360406D8A00506F2D70550D4E173
:100CB0000428D2E012AE11D07F0E121402E113A06C
:100CC0000CD0132AE86A0222032207E3D8800332F9
:100CD00002321332042A0428BFE00450C9E013C0D2
:100CE00007F002C008F00334096E04300A6E0932BE
:100CF0000A9E01BE0A8E2BEF06F009360A3602E381
:100D00000184017E06E101800A6A096A086A076AAD
:100D100012000A2803E0D88009321200D890093264
:100D200002E101821200018612000E360F3602E344
:100D3000018C017E06E101880F6A0E6A0D6A0C6A59
:100D400012000F2803E0D8800E321200D8900E3225
:060D5000EAE1018A120035
:0A0D5600000000000000002F000064
:100D60000007000700147F147F14242A7F2A12C46E
:100D7000C810264636495522500005030000001CC5
:100D80002241000041221C0014083E081408083EBD
:100D900008080000503000101010101000606000B3
:100DA0000020100804023E5149453E00427F4000A9
:100DB00042615149462141454B311814127F102799
:100DC000454545393C4A49493001710905033649D1
:100DD000494936064949291E003636000000563674
:100DE00000000814224100141414141400412214A9
:100DF000080201510906324959513E7E1111117EF6
:100E00007F494949363E414141227F4141221C7F71
:100E1000494949417F090909013E4149497A7F0809
:100E200008087F00417F41002040413F017F0814B6
:100E300022417F404040407F020C027F7F04081027
:100E40007F3E4141413E7F090909063E4151215EF5
:100E50007F09192946464949493101017F01013F6E
:100E60004040403F1F2040201F3F4038403F631418
:100E700008146307087008076151494543007F4122
:100E80004100552A552A550041417F0004020102C4
:100E90000440404040400001020400205454547873
:100EA0007F484444383844444420384444487F38D8
:100EB00054545418087E0901020C5252523E7F08C5
:100EC00004047800447D40002040443D007F102809
:100ED000440000417F40007C041804787C0804042E
:100EE0007838444444387C14141408081414187CCA
:100EF0007C080404084854545420043F4440203CD7
:100F00004040207C1C2040201C3C4030403C442879
:0D0F10001028440C5050503C4464544C4494
:020F1E00060EBD
:100F2000F66E000EF76E000EF86E00010900F55027
:100F3000656F0900F550666F03E1656701D03DD02C
:100F40000900F550606F0900F550616F0900F55018
:100F5000626F09000900F550E96E0900F550EA6E6C
:100F6000090009000900F550636F0900F550646F2E
:100F700009000900F6CF67F0F7CF68F0F8CF69F005
:100F800060C0F6FF61C0F7FF62C0F8FF0001635365
:100F900002E1645307E00900F550EE6E6307F8E2E2
:100FA0006407F9D767C0F6FF68C0F7FF69C0F8FFAC
:0C0FB00000016507000E665BBFD7120051
:040FBC00056A046A54
:100FC000100EE76ED89008360936043605360D50F7
:100FD000045C0E50055805E30D50045E0E50055A92
:080FE000082AE72EF0D71200E9
:080FE800000EF36E00EE00F0B4
:100FF000060E01D81200EA6002D0EE6AFCD7F35068
:08100000E9601200EE6AFCD762
:0810080015EE00F025EE00F0EA
:10101000F86A019C8FEC07F012EC08F004EC00F089
:04102000FBD71200E8
:021024001200B8
:020000040030CA
:0100010022DC
:0100020003FA
:010003000EEE
:010006008079
:00000001FF
