:0400000081315929C8
:100008007E14803120007F08A8008B1A0B1D212840
:100018000B112F080339303E860087010108A00024
:100028002008F1002F0803398231BD2280310130C8
:100038002000A0002008AF075529111F55292100CD
:100048001C082000AA0021001B082000A90001307C
:10005800A0002008B4072B08A0002C08A1002D0838
:10006800A2002E08A3002908A4002A08A500A601BA
:10007800A7012408A0072508A13D2608A23D2708B6
:10008800A33D2308AE002208AD002108AC002008DB
:10009800AB0080303402031C54292B08A0002C0824
:1000A800A1002D08A2002E08A3000730A336A20C39
:1000B800A10CA00C890B5A282308AE002208AD0019
:1000C8002108AC002008AB002E08F3002D08F20030
:1000D8002C08F1002B08F0000030F7000030F60083
:1000E8000130F5004D30F40082318E2280317308E2
:1000F8002000AE007208AD007108AC007008AB00BB
:100108000030F3000030F2000030F1006430F000FD
:100118002E08F7002D08F6002C08F5002B08F4002F
:1001280081317221803173082000AE007208AD0061
:100138007108AC007008AB000030F3000030F2002A
:100148000030F1000A30F0002E08F7002D08F60004
:100158002C08F5002B08F400823114228031700835
:100168002000A0002008B3000030F3000030F200A7
:100178000030F1000A30F0002E08F7002D08F600D4
:100188002C08F5002B08F4008131722180317308A6
:100198002000AE007208AD007108AC007008AB001A
:1001A8000030F3000030F2000030F1000A30F000B7
:1001B8002E08F7002D08F6002C08F5002B08F4008F
:1001C80082311422803170082000A0002008B2007B
:1001D8000030F3000030F2000030F1000A30F00087
:1001E8002E08F7002D08F6002C08F5002B08F4005F
:1001F80081317221803173082000AE007208AD0091
:100208007108AC007008AB000030F3000030F20059
:100218000030F1000A30F0002E08F7002D08F60033
:100228002C08F5002B08F400823114228031700864
:100238002000A0002008B1000030F3000030F200D8
:100248000030F1000A30F0002E08F7002D08F60003
:100258002C08F5002B08F4008131722180317308D5
:100268002000AE007208AD007108AC007008AB0049
:100278000030F3000030F2000030F1000A30F000E6
:100288002E08F7002D08F6002C08F5002B08F400BE
:100298008231142270082000A0002008B000B401A8
:1002A80011132808FF007E10090081315B290D30E9
:1002B8008400833085001200B0001200B1001200E3
:1002C800B2001200B3001200B400AB01AC01AD01E2
:1002D800AE01AF017E1020008231562A0030FC00AA
:1002E8000030FB000030FA000030F9007308720497
:1002F800710470040319BB29FD01FD0AF31B902941
:100308000130F035F10DF20DF30D890B852901301F
:10031800F8007808FD0782290130F935FA0DFB0D40
:10032800FC0D890B912973087702031DA529720812
:100338007602031DA52971087502031DA5297008F9
:100348007402031CB0297008F4027108F53B7208A6
:10035800F63B7308F73B79140130F336F20CF10CD5
:10036800F00C890BB1290130FD02031D90297C088E
:10037800F3007B08F2007A08F1007908F000080021
:10038800F00022008E160E158E178E158C160E167E
:100398008D16092A8E120E118E138E118C120E12C2
:1003A80008000E118E1308008E120E118E118C1279
:1003B8008D1208008E120E118E138E118D120800E8
:1003C8000E118E130E128D1208008E128E138E11BE
:1003D8000E128D1208008E128E138E118C120E12B0
:1003E8008D1208008E120E118E1308008E120E1137
:1003F8008E138E118C120E128D1208008E120E1191
:100408008E138E110E128D120800700884000A30A7
:1004180004020318080082310435E93E820008000E
:10042800730872047104700403194D2AF901F90A5A
:10043800F31B2A2A0130F035F10DF20DF30D890B6B
:100448001F2A0130F8007808F9071C2A7308770278
:10045800031D382A72087602031D382A71087502AE
:10046800031D382A70087402031C422A7008F4021B
:100478007108F53B7208F63B7308F73B0130F33619
:10048800F20CF10CF00C890B432A0130F902031D20
:100498002A2A7708F3007608F2007508F100740834
:1004A800F00008003C30210099048231FD2282319D
:1004B800210095119512073095048B1620001C0811
:1004C800FC3902389C001C08873968389C001C15C8
:1004D800F0309B00911022001708FC390238970071
:1004E800971721001D0883390C389D001D149D1491
:1004F8009E171E088F3950389E0003309E041F082F
:100508008F3950389F0020001113210011170B1745
:100518008B178D2A0030FB000030FA000030F900FC
:100528000030F800701CA02A7408F8077508F93D17
:100538007608FA3D7708FB3D0130F435F50DF60DE8
:10054800F70D890BA12A0130F336F20CF10CF00CEF
:10055800890BA82A7308720471047004031D962A73
:100568007B08F3007A08F2007908F1007808F000B7
:100578000800F200D72A22000D168D170D170E134A
:10058800E52A22000E178D170D170D12E52A2200F5
:100598000E170D160D178D13E52A22000E170D16CE
:1005A8008D170D13E52A7208003A0319BF2A013A7C
:1005B8000319C52A033A0319CB2A013A0319D12A88
:1005C800E52A71088131C42108008131CE298131A1
:1005D800D5298131D8298131DE298131E429813138
:1005E800E9298131EF298131F6298131FA298231CE
:1005F800022A21000E130D128D130D138E120E11E7
:100608008E138E118C120E128D1223008D018E0105
:0C061800080001340234033404340834B8
:020000040001F9
:04000E00A4EFCFDFAD
:00000001FF
