:020000000F28C7
:10000800DE00030E8312A1000408A2000A08A30060
:100018005F08A4008B298316FF23900083019C2985
:100028006430B000B101682045212608AE002508DB
:10003800AD00FF30AB000330AC00C1202C08B3008A
:100048002B08B20070203108BA003008B9000A3A0B
:100058003A04031D3428B70A0319B80AB901BA01CA
:100068003908013E84007721BE00FF30B00003301C
:10007800B100682045212608B3002508B200702089
:100088003108BA003008B9000A30AB00AC013A08B0
:10009800AE003908AD00C1202B08013E840077214D
:1000A800BD000A30B000B1013A08B3003908B20007
:1000B80070203008013E84007721BC00403A031DBF
:1000C8000800FF30BC0008003808A6003708A50063
:1000D8001E30A700A8010800B401B501310830049A
:1000E80003199528B601B60AB11B7E280310B00D76
:1000F800B10D77280310B40DB50D31083302031D77
:10010800872830083202031C91283008B2023108CF
:10011800031CB303B30234140310B10CB00CB60BB8
:100128007E283508B1003408B00008000821831281
:10013800BF01C001BB01A501A50AA601E5205E21FA
:100148002508BF070318C00A2608C0070330BB0AE2
:100158003B02031C9F280330B000B1014008B300E4
:100168003F08B20070203108B8003008B7001420EA
:10017800C830A500A601E5209B282C082B040319EC
:10018800E028AF01AF0AAC1BCD280310AB0DAC0DB6
:10019800C6282C082E02031DD3282B082D02031C69
:1001A800DC282B08AD022C08031CAE03AE0203109A
:1001B800AC0CAB0CAF0BCD282E08AC002D08AB0057
:1001C80008002608803ADF0080305F02031DEE2811
:1001D80001302502031C08008312A701A80183121D
:1001E800A70A0319A80A2808803ADF0080305F02AE
:1001F800031D00296F302702031CF328FF308312E8
:10020800A507031CA603E5280730990008308316C4
:10021800910060309F008D3083129F001830831644
:1002280085002730831285008316870137308312B3
:1002380087009001DF308F008B170B1783160C1483
:10024800831210140800273085003F3087000330E0
:1002580041020318C10141083C3E84008313000891
:10026800870041080C3E84007721073AA000410826
:100278003C3E84000310000C203920048500C10A8C
:100288000800A901AA01251C4F292708A907031856
:10029800AA0A2808AA070310A70DA80D0310A60C80
:1002A800A50C26082504031D47292A08A6002908A5
:1002B800A500080083129F149F18602983161E0842
:1002C8008312A900AA011E08A700A801A800A70177
:1002D8002708A9070318AA0A2808AA072A08A600AF
:1002E8002908A500080001308A000408840A82074A
:1002F8000034403457342234063415340C3408346E
:10030800563400340434FF340234013404340C1CF1
:1003180091290C10DF308F0027212408DF002308E3
:100328008A0022088400210E8300DE0E5E0E09007A
:0E0338007F30C101BC00BD00BE0083019A28C9
:02400E00C4FFED
:00000001FF
